:100000000C9470000C9498000C9498000C94980038
:100010000C9498000C9498000C9498000C94980000
:100020000C9498000C9498000C9498000C949800F0
:100030000C9498000C9498000C9498000C949800E0
:100040000C94BA140C9498000C9490170C94C2174A
:100050000C9498000C9498000C9498000C949800C0
:100060000C9498000C9498001112131415160A0B96
:100070000C0D0E0F00010203040500000008000231
:10008000010000030407000000000000000001025E
:100090000408102040800102040810200102040816
:1000A00010200404040404040404020202020202F4
:1000B00003030303030300000000250028002B00B6
:1000C00000000000240027002A0031019F01EA01FE
:1000D000410622082D088D0A4A14F2179018610172
:1000E00011241FBECFEFD8E0DEBFCDBF12E0A0E0ED
:1000F000B1E0EAE6F9E302C005900D92A43DB10734
:10010000D9F724E0A4EDB2E001C01D92A135B207F9
:10011000E1F710E0CEEDD0E004C02297FE010E948E
:100120006C1ACA3CD107C9F70E94A0180C94A81CED
:100130000C940000CF93DF9300D000D000D0CDB757
:10014000DEB748EB5BE060E070E08BE593E00E9497
:10015000141440E051EE60E070E08BE593E00E9403
:10016000FD1361E08BE593E00E94FA13882391F080
:1001700066E271E08AEA93E00E94ED184AE050E0FE
:1001800060E070E08BE593E00E94F7138BE593E06D
:100190000E94FC1341E060E08BE593E00E949D1417
:1001A00026E040E051EE60E070E08AEA93E00E94D1
:1001B0002E1785EC92E09A8389838091F5029091C5
:1001C000F602A091F702B091F8028B839C83AD8375
:1001D000BE83AE014F5F5F4F68E171E081E293E063
:1001E0000E94F30584ED92E00E945F134AE051E023
:1001F00061E084ED92E00E94691284ED92E00E9439
:10020000D71226960FB6F894DEBF0FBECDBFDF9192
:10021000CF910895CF93DF9300D0CDB7DEB784EDB3
:1002200092E00E9459128823B9F084ED92E00E9476
:100230005912882389F042E0BE016F5F7F4F84ED41
:1002400092E00E945D1269817A814AE050E08AEA78
:1002500093E00E949319E9CF0F900F90DF91CF9117
:1002600008950F9300E020E040E060E08BE093E031
:100270000E94791808E121E048EA60EC85E093E00B
:100280000E94791868E371E08FEF92E00E94321AC1
:1002900065E471E089EF92E00E94321A06E921E0FC
:1002A00048EA60EC83EF92E00E94791886EE92E0D3
:1002B0000E944D0748E067E084ED92E00F910C94B6
:1002C000101289EF92E00E94C4198FEF92E00C9413
:1002D000C419CF93CFB7F89480911403811127C02C
:1002E000ECEAF0E08491E8E9F0E09491E82FF0E0A6
:1002F000EE0FFF1FE054FF4FA591B4918C9189231D
:1003000021F461E08AE00E94151661E08AE00E9413
:10031000DC158CB580618CBD8CB580648CBD61E0D2
:100320008DE00E94DC1561E08BE00E94DC1580917D
:1003300014038F5F80931403CFBFCF9108950F9361
:1003400000E020E040E060E085E193E00E94791861
:100350000F910895FB014281538164817581FC01F5
:100360004283538364837583178216820895FB0149
:1003700020E080E090E06AE03191332309F170EDF4
:10038000730F7A3080F4DC016A9FC0016B9F900D7F
:100390001124C097830F911D37FD9A958F3F9105CA
:1003A00059F350F314C03E3291F4233081F0DA0156
:1003B000A20FB11D12968C932F5F80E090E0DCCFEE
:1003C000233029F4FA01858381E090E0089580E0EC
:1003D00090E008950F9300E020E040E060E08BE1C2
:1003E00093E00E9479180F910895AF92BF92CF9237
:1003F000DF92EF92FF920F931F93CF93DF9300D082
:1004000000D01F92CDB7DEB78C017B010E9404158E
:10041000F801778366837627672776277A8369834F
:10042000085F1F4F42E050E0BE016F5F7F4FC80181
:100430000E948F0881E090E09C838B8342E050E033
:10044000BE016D5F7F4FC8010E948F0880E091E080
:100450009C838B8342E050E0BE016D5F7F4FC801FB
:100460000E948F081C821B8242E050E0BE016D5F3B
:100470007F4FC8010E948F0842E050E0BE016D5FCF
:100480007F4FC8010E948F0842E050E0BE016D5FBF
:100490007F4FC8010E948F086701F6018081882381
:1004A00011F1F7016F018191811115C05601AE184C
:1004B000BF081A141B0494F4AD8241E050E0BE0161
:1004C0006B5F7F4FC8010E948F08A501B701C8016B
:1004D0000E948F0803C08E3229F7E8CF7601FFEF24
:1004E000EF1AFF0ADACF1D8241E050E0BE016B5FD8
:1004F0007F4FC8010E948F08E12CFF24F394FC82F7
:10050000EB8242E050E0BE016D5F7F4FC8010E9468
:100510008F08FC82EB8242E050E0BE016D5F7F4FAE
:10052000C8010E948F0881E090E00F900F900F901B
:100530000F900F90DF91CF911F910F91FF90EF904F
:10054000DF90CF90BF90AF9008954F925F926F92DF
:100550007F928F929F92AF92BF92CF92DF92EF9253
:10056000FF920F931F93CF93DF93CDB7DEB76397BF
:100570000FB6F894DEBF0FBECDBF7C015B016A01F0
:100580000E9404152B013C018701085F1F4F4501A4
:10059000A12CB12CC8010E942F091816190694F03D
:1005A0000E9404156419750986099709861697062D
:1005B000A806B906D0F062E370E080E090E00E9407
:1005C0003315E8CFF7014281538164817581808DB5
:1005D000918DA28DB38D481759076A077B0741F4A7
:1005E000848D958DC59721F406C08FEF9FEFFAC0DB
:1005F0008EEF9FEFF7C0C8010E9453080C97ECF0F4
:100600004CE050E0BE016F5F7F4FC8010E94CC08F4
:100610006C818B810E94BF199A8B898BF701E680D0
:10062000F7806A8189810E94BF19E816F90641F4B2
:1006300089899A8997FF04C009C08DEF9FEFD2C0C6
:10064000C8010E946D088CEF9FEFCCC08F70927034
:10065000892B31F0C8010E946D088BEF9FEFC2C05B
:1006600068858F810E94BF195C01009719F0E12C09
:10067000F12C23C0C8010E946D088AEF9FEFB2C021
:1006800041E050E0BE01635F7F4FC8010E94CC088B
:100690008D8581111AC08D858111F2CFC8010E940C
:1006A000A308C8010E94A308C8010E94A308C801AA
:1006B0000E94A308FFEFEF1AFF0A6E818D810E944E
:1006C000BF19E816F906E0F20AC08D859FEF980F72
:1006D0009D87882301F3C8010E94A308F6CFE12C6F
:1006E000F12C41E050E0BE016D5E7F4FC8010E94D9
:1006F000CC088B89982F907C61F4882371F08B89CA
:100700009FEF980F9B8B882341F0C8010E94A3089C
:10071000F6CFC8010E94A3081B8A8B898111E1CF03
:1007200042E050E0BE01615F7F4FC8010E94CC08EB
:1007300042E050E0BE01635F7F4FC8010E94CC08D9
:10074000C8010E94A308C8010E94A308C8010E9412
:10075000A308C8010E94A30842E050E0BE016F5EFA
:100760007F4FC8010E94CC088F85988981159140E0
:1007700029F48D859E858115914019F0812C912C4D
:1007800016C089899A898115944031F0C8010E9468
:100790006D0887EF9FEF26C0B6016E5F7F4F44E084
:1007A00050E0C8010E94CC0881E090E01BC089891C
:1007B0009A899827892798278816990638F4C801B6
:1007C0000E94A3082FEF821A920AF1CF8FEFE81A46
:1007D000F80AEA14FB0409F084CFC8010E946D08EE
:1007E00086EF9FEF63960FB6F894DEBF0FBECDBFC6
:1007F000DF91CF911F910F91FF90EF90DF90CF90FD
:10080000BF90AF909F908F907F906F905F904F9030
:1008100008958F929F92AF92BF92CF92DF92EF9204
:10082000FF920F931F93CF93DF9300D000D000D09F
:10083000CDB7DEB78C015B016A010E94B7014C01A4
:10084000009709F05DC0F801428153816481758190
:1008500080911D0390911E03A0911F03B09120036E
:10086000481759076A077B0709F44EC00E94041510
:100870007801F8E0EF0EF11C6F7077277C5FC701FD
:100880000E940209813009F043C085EC92E09A830E
:100890008983F80182819381A481B5818B839C83B4
:1008A000AD83BE8345E350E0BE016F5F7F4FC7015C
:1008B0000E948308892B19F4812C912C1DC0B5014D
:1008C000C8010E94F501892BB9F3C7010E948B086A
:1008D000892B91F333E0A32EB12CA60168E873E1D4
:1008E000C8010E94A5024C01F1E0AF1AB10821F045
:1008F0008F3F2FEF920789F3C7010E946E0808C04F
:1009000088248394912C04C09EEF892E99249A9474
:10091000C40126960FB6F894DEBF0FBECDBFDF919F
:10092000CF911F910F91FF90EF90DF90CF90BF90EC
:10093000AF909F908F90089520911303222399F0F8
:100940003FB7F89420911303213059F42DB320932D
:1009500011034DB320911203209524232DBB3FBFDB
:1009600002C0309311038CBD9DBD08958091130387
:10097000882361F09FB7F8942091130380911103AD
:10098000213019F48DBB9FBF08958FBF089544E0B7
:1009900050E0BC0181E090E00C94FE0E44E050E099
:1009A000BC0185E090E00C94FE0E44E050E0BC01F8
:1009B0008FE090E00C94FE0E8F929F92AF92BF92C8
:1009C000CF92DF92EF92FF920F931F93CF93DF931B
:1009D00000D0CDB7DEB74C016A0159018BE493E03A
:1009E00069837A830E94960E80E590E00E949C04C1
:1009F00046E050E069817A8189E090E00E94FE0E35
:100A0000C60102960E94D504C80102960E94C7043E
:100A1000C70102960E94CE040E94B604F5014281ED
:100A2000538164817581F4014283538364837583A8
:100A30000F900F90DF91CF911F910F91FF90EF904A
:100A4000DF90CF90BF90AF909F908F9008956F925E
:100A50007F928F929F92AF92BF92CF92DF92EF924E
:100A6000FF920F931F93CF93DF93CDB7DEB76E97AF
:100A70000FB6F894DEBF0FBECDBF6C015B017A01EB
:100A80004901380100E02FEF4FEF6FEFCE0149969B
:100A90000E94791825EC32E03A8329838B8D9C8D56
:100AA000AD8DBE8D8B839C83AD83BE8338872F83B2
:100AB000F30182819381A481B58189879A87AB876D
:100AC000BC873E872D87F40182819381A481B58103
:100AD0008F87988BA98BBA8B3C8B2B8BF70142812C
:100AE0005381648175814D8B5E8B6F8B788FCE01C6
:100AF00001967C018E01095F1F4F9E01235F3F4FCE
:100B0000AE014D5E5F4FB501C6010E94DC046E96DA
:100B10000FB6F894DEBF0FBECDBFDF91CF911F910E
:100B20000F91FF90EF90DF90CF90BF90AF909F908C
:100B30008F907F906F900895CF92DF92EF92FF9207
:100B40000F931F93CF93DF93CDB7DEB768970FB6A0
:100B5000F894DEBF0FBECDBF6B017901DA011296AA
:100B60004D915D916D917C9115974D8B5E8B6F8B47
:100B7000788FA5ECB2E0BA83A98321E0288F0D8994
:100B80001E892F89388D0B831C832D833E83B88764
:100B9000AF83F701028113812481358109871A8788
:100BA0002B873C87BE87AD874F87588B698B7A8BA5
:100BB0008E010F5F1F4F9E01295F3F4FAE01435FC4
:100BC0005F4FB6010E94270568960FB6F894DEBF06
:100BD0000FBECDBFDF91CF911F910F91FF90EF908E
:100BE000DF90CF9008950F931F93CF93DF93CDB7EE
:100BF000DEB762970FB6F894DEBF0FBECDBFDB0144
:100C0000FA0142815381648175814F87588B698BCA
:100C10007A8BE5ECF2E0FA83E98321E02A8B0F85F9
:100C2000188929893A890B831C832D833E83F88791
:100C3000EF8349875A876B877C879E012F5F3F4FE1
:100C4000AE01495F5F4FBD010E949C0562960FB6E1
:100C5000F894DEBF0FBECDBFDF91CF911F910F91F2
:100C6000089525EC32E0FC0131832083FB014281B1
:100C7000538164817581FC0142835383648375834E
:100C800008950F9300E020E040E060E081E393E00E
:100C90000E94791881E293E00F910C946F1881E023
:100CA00086270895862F0895DC01ED91FC91048C30
:100CB000F58DE02D099591E089270895CF93DF9375
:100CC0001F92CDB7DEB76983DC01ED91FC91028004
:100CD000F381E02D41E050E0BE016F5F7F4F099549
:100CE0000F90DF91CF91089521E0FC01848584303D
:100CF00009F420E0822F0895FC019485FB0184858E
:100D0000981303C081E0943009F480E008950F93B4
:100D10001F93CF93DF93EC018A018C85843021F0FF
:100D20000E94380C892B39F481E090E09B838A8300
:100D300080E090E001C0C801DF91CF911F910F9139
:100D40000895FC018485843011F00C942F0D80E00F
:100D500090E00895CF93DF931F92CDB7DEB741E0C7
:100D600050E0BE016F5F7F4FFC0184850E94CF0C75
:100D7000181619061CF4898190E002C08FEF9FEFCE
:100D80000F90DF91CF910895FC0184850C94CF0CD6
:100D90000F931F93CF93DF931F92CDB7DEB78C01D4
:100DA000DC01ED91FC910480F581E02D0995892B02
:100DB00051F0BE016F5F7F4FF80184850E945A0D8C
:100DC000898190E002C08FEF9FEF0F90DF91CF916C
:100DD0001F910F910895FC0184850C94890DCF9289
:100DE000DF92EF92FF920F931F93CF93DF93CDB7D4
:100DF000DEB7AF970FB6F894DEBF0FBECDBF7C0154
:100E00008B016A01CE0101960E946F18CE010996EE
:100E10000E94150ACE018A960E946F1861E273E063
:100E2000CE0184960E943106BE016C5D7F4FCE01DB
:100E300001960E94AA01AE01465D5F4FB801CE0146
:100E400001960E94090481309105C1F4D701ED910A
:100E5000FC910484F585E02D85EC92E09DA38CA3A4
:100E60000CA51DA52EA53FA50EA31FA328A739A736
:100E7000A601BE016C5D7F4FC7010995AF960FB605
:100E8000F894DEBF0FBECDBFDF91CF911F910F91C0
:100E9000FF90EF90DF90CF900895FC0113821282B3
:100EA00048EE53E060E070E04483558366837783C7
:100EB00081E092E09183808384E084870895FC013F
:100EC0008485843011F00C94140B80E00895DF9237
:100ED000EF92FF920F931F93CF93DF93EC017B016F
:100EE0008A018C85843009F045C0D12C8D2D0E945B
:100EF000140B811102C0DC8607C08B7F8831D9F3C7
:100F0000D39484E0D812F2CF8C85843099F120916B
:100F10001E0130911F012F5F3F4F11F420E030EC94
:100F200030931F0120931E0140911E0150911F011B
:100F300020E061E00E94660BB7016E5F7F4FA80161
:100F40008C850E94BA0B811103C084E08C8712C08B
:100F5000CE010E945F07873151F061E070E080E0D0
:100F600090E00E943315CE010E945F07ECCF81E034
:100F700090E002C080E090E0DF91CF911F910F914F
:100F8000FF90EF90DF900895CF92DF92EF92FF9263
:100F9000CF93DF93EC018C85843049F10E94120CD1
:100FA0000E9404156B017C01CE010E945F0788231B
:100FB000A1F061E070E080E090E00E9433150E94B3
:100FC00004156C197D098E099F09683E73408105DF
:100FD000910550F38C850E943C0BEC85F0E0EE0F00
:100FE000FF1FE75DFC4F1182108284E08C87DF9148
:100FF000CF91FF90EF90DF90CF900895CF93DF9344
:10100000EC018C858430D1F0CE010E945F078431E1
:10101000A9F0882399F0883189F08C3169F4E8814E
:10102000F9810480F581E02DCE01099521E0892B1D
:1010300009F420E0822F03C081E001C080E0DF914D
:10104000CF9108950F9300E020E040E060E087E357
:1010500093E00E9479180F9108950F9300E020E02B
:1010600040E060E08DE393E00E9479180F910895CD
:10107000DC01ED91FC91008CF18DE02D099425ECC3
:1010800032E0FC0131832083FB0140895189628970
:101090007389FC0142835383648375830895FC0143
:1010A000848995890895FC01818D928D0895CF934F
:1010B000DF931F92CDB7DEB76983DC01ED91FC9120
:1010C0000280F381E02D41E050E0BE016F5F7F4F71
:1010D00009950F90DF91CF9108950895CF93DF93F5
:1010E000EC01888D843061F00E943C0BE88DF0E0CB
:1010F000EE0FFF1FE75DFC4F1182108284E0888FA6
:10110000DF91CF910895FC01178A168A6E5F7F4F99
:10111000808D0C94D10DFC01808D0C94170ECF9313
:10112000DF93EC019A018E899F89AB01BC01888D08
:101130000E948A0D2E893F89280F391F3F8B2E8BE5
:10114000DF91CF9108950F931F93CF93DF931F9259
:10115000CDB7DEB78C01FC01818D928D892B59F0C2
:1011600041E050E0BE016F5F7F4F808D0E94CF0C49
:10117000181619061CF08FEF9FEF08C0F801818D3B
:10118000928D0197928F818F898190E00F90DF91EE
:10119000CF911F910F910895CF93DF93EC01898D2B
:1011A0009A8D009719F48FEF9FEF10C048175907D9
:1011B00008F0AC01888D0E94CF0C181619069CF718
:1011C000298D3A8D281B390B3A8F298FDF91CF91CA
:1011D0000895CF93DF931F92CDB7DEB7FC01218D29
:1011E000328D232B49F0BE016F5F7F4F808D0E94AF
:1011F0005A0D898190E002C08FEF9FEF0F90DF9131
:10120000CF910895FF920F931F93CF93DF93EC013B
:101210008B01888D8430E1F4F12C8F2D0E94140B0A
:10122000811102C0F88E06C08831E1F3F39484E0A6
:10123000F812F3CF888D843059F01D870C871A8EF1
:10124000198E20E0A80162E00E94660B81E001C0D7
:1012500080E0DF91CF911F910F91FF9008950F9340
:101260001F93CF93DF93CDB7DEB728970FB6F894CF
:10127000DEBF0FBECDBF8C01F801818D928D892B11
:1012800049F0D801ED91FC910680F781E02DC8016D
:101290000995F2CF808D0E942F0D1816190644F57E
:1012A00048E050E0BE016F5F7F4FD80158968C91A7
:1012B0000E94CF0C18161906ECF4BE016F5F7F4F29
:1012C000C8010E960E9485188D8190E0982F88277E
:1012D0002E81820F911DF801958B848B8F8190E078
:1012E000982F88272885820F911D928F818F02C0A9
:1012F00080E090E028960FB6F894DEBF0FBECDBF19
:10130000DF91CF911F910F9108958F929F92AF928D
:10131000BF92CF92DF92EF92FF920F931F93CF93E2
:10132000DF9300D000D000D0CDB7DEB78C017B01B9
:101330004A01FC01808D843009F063C073E0A72E60
:1013400074E0B72EC12CD12CC5010E942D0F811144
:1013500003C0F801C08E0AC08831D9F3FFEFCF1A5D
:10136000DF0AB394E4E0CE16D10471F7F801808D62
:10137000843009F446C096E0E0E2F1E0DE01119627
:1013800001900D929A95E1F7F70193819F779C83E5
:1013900094819D8395819E83B7016E5F7F4F90E01E
:1013A000982F882744E050E0845F9B4F0E94FE0EF8
:1013B000F801808D90E00496F82EEE24692DC70187
:1013C00040960E94740E682DC70141960E94740ECB
:1013D000F801808D90E0982F882746E050E0BE010C
:1013E0006F5F7F4F8A5F9B4F0E94FE0EF801128E47
:1013F000118E20E8A40162E0808D0E94660B81E0DE
:1014000001C080E026960FB6F894DEBF0FBECDBFB8
:10141000DF91CF911F910F91FF90EF90DF90CF90D0
:10142000BF90AF909F908F900895CF93DF93EC0182
:101430001B821A8248EE53E060E070E04C835D83CB
:101440006E837F8385E292E099838883CE010E9636
:101450000E946F1884E0888FDF91CF910895CF921A
:10146000DF92EF92FF920F931F93CF93DF93CDB74D
:10147000DEB7AF970FB6F894DEBF0FBECDBF7C01CD
:101480008B016A01CE0101960E946F18CE01099668
:101490000E94150ACE018A960E946F1861E273E0DD
:1014A000CE0184960E943106BE016C5D7F4FCE0155
:1014B00001960E94AA01AE01465D5F4FB801CE01C0
:1014C00001960E94090481309105C1F4D701ED9184
:1014D000FC910088F189E02D85EC92E09DA38CA31E
:1014E0000CA51DA52EA53FA50EA31FA328A739A7B0
:1014F000A601BE016C5D7F4FC7010995AF960FB67F
:10150000F894DEBF0FBECDBFDF91CF911F910F9139
:10151000FF90EF90DF90CF9008950F9300E020E0D0
:1015200040E060E083E493E00E9479180F91089511
:10153000CF92DF92EF92FF920F9330E0C12CF2E155
:10154000DF2EFAE7EF2EF12C4C155D056E057F05B9
:1015500040F4F694E794D794C7943F5F3630A1F7F0
:1015600037E041E04327211102C050E701C050E5B8
:10157000242F30E03595279523700C70202B252BD8
:10158000FC012083417041830F91FF90EF90DF9029
:10159000CF90089590E0982F882744E050E0845F32
:1015A0009B4F0C94FE0E282F30E02C5F3F4F922F64
:1015B0008827860F971F0C942D0F62E070E00C9423
:1015C000D30AFB01282F30E02C5F3F4F922F882752
:1015D000642F8E0F9F1F0C94740ECF93DF93C82F30
:1015E000D62F472F64E070E00E94E10A4D2F65E09E
:1015F00070E08C2FDF91CF910C94E10A462F62E0CE
:1016000070E00C94E10ACF93DF93C82FD62F472FB9
:1016100060E170E00E94E10A4D2F61E170E08C2FE3
:10162000DF91CF910C94E10A0F931F93CF93DF9337
:1016300000D01F92CDB7DEB7182F00E021E040E0C8
:1016400059E06DE370E0CE0101960E94980A89810D
:101650009A810E949C0463E070E0812F0E94D30A6B
:101660008B830E94B6048B810F900F900F90DF91B7
:10167000CF911F910F9108950F931F93CF93DF93F5
:1016800000D0CDB7DEB7182F00E021E040E059E0F0
:101690006DE370E0CE0101960E94980A89819A81DB
:1016A0000E949C0440E150E0612F8BE493E00E9493
:1016B000F7106FEF812F0E94FE0A0E94B6040F9070
:1016C0000F90DF91CF911F910F910895CF92DF92EC
:1016D000EF92FF920F931F93CF93DF9300D0CDB77C
:1016E000DEB7182FD62E7A01C22E8FEF860F8530E7
:1016F000A8F5812F0E943C0B00E021E040E059E07A
:101700006DE370E0CE0101960E94980A89819A816A
:101710000E949C044D2D4C2960E070E0812F0E94B6
:10172000E10AE114F10411F0B7010AC06091490324
:1017300070914A036F5F7F4F70934A036093490330
:10174000812F0E94ED0A41E050E0612F8BE493E08D
:101750000E94F7100E94B60481E001C080E00F9063
:101760000F90DF91CF911F910F91FF90EF90DF903D
:10177000CF900895CF92DF92EF92FF920F931F9335
:10178000CF93DF9300D0CDB7DEB7182F7B016A016E
:10179000FB0180818F3F51F481818F3F99F48281D9
:1017A0008F3F81F483818F3F69F430C081110AC07B
:1017B000FB018181811106C08281811103C0838177
:1017C000882321F1C114D10409F100E021E040E0B7
:1017D00059E06DE370E0CE0101960E94980A89817C
:1017E0009A810E949C04B701812F0E94CA0AB60107
:1017F000812F0E94030B44E050E0612F8BE493E0C3
:101800000E94F7100E94B60481E001C080E00F90B2
:101810000F90DF91CF911F910F91FF90EF90DF908C
:10182000CF9008950F931F93CF93DF9300D0CDB740
:10183000DEB7182F00E021E040E059E06DE370E0F2
:10184000CE0101960E94980A89819A810E949C0487
:1018500048E050E0612F8BE493E00E94F7100E9473
:10186000B6040F900F90DF91CF911F910F910895C3
:10187000BF92CF92DF92EF92FF920F931F93CF937D
:10188000DF9300D01F92CDB7DEB7B82E6B017A017F
:10189000413088E0580718F0E12C98E0F92E00E07C
:1018A00021E040E059E06DE370E0CE0101960E9436
:1018B000980A89819A810E949C046B2D8BE493E0A5
:1018C0000E94650F8C0163E070E08B2D0E94D30AAB
:1018D0008B830E94B6048B81873111F08C3131F4F7
:1018E0000E94B9140E151F05D0F202C0E12CF12C94
:1018F00000E021E040E059E06DE370E0CE010196A8
:101900000E94980A89819A810E949C049701A601ED
:101910006B2D8BE493E00E94241040E250E06B2D8D
:101920008BE493E00E94F7108B2D0E94DD0A84FD6A
:1019300022C063E070E08B2D0E94D30A811108C0A1
:101940000E94B6048B2D0E943C0B80E090E01AC0F0
:101950000E94B6040E94B91400E021E040E059E082
:101960006DE370E0CE0101960E94980A89819A8108
:101970000E949C04D9CF60E18B2D0E94FE0A0E9438
:10198000B604C7010F900F900F90DF91CF911F9178
:101990000F91FF90EF90DF90CF90BF900895AF929E
:1019A000BF92CF92DF92EF92FF920F931F93CF934C
:1019B000DF9300D0CDB7DEB7182F5B016A0100E0DE
:1019C00021E040E059E06DE370E0CE0101960E9415
:1019D000980A89819A810E949C04612F8BE493E08C
:1019E0000E94990F7C010097A1F463E070E0812FC1
:1019F0000E94D30A843119F1882309F121E030E0F3
:101A00008C3111F420E030E0EE24FF24E21AF30AD6
:101A100016C0C816D9060CF476011E141F047CF4F7
:101A200000E09701A501612F8BE493E00E94A710CD
:101A300040E450E0612F8BE493E00E94F7100E9495
:101A4000B604C7010F900F90DF91CF911F910F91B6
:101A5000FF90EF90DF90CF90BF90AF9008950F93DD
:101A60001F93CF93DF9300D000D0CDB7DEB7182FF0
:101A700000E021E040E059E06DE370E0CE01019626
:101A80000E94980A89819A810E949C04612F8BE4AC
:101A900093E00E94990F8B839C830E94B6048B81F4
:101AA0009C810F900F900F900F90DF91CF911F911D
:101AB0000F910895EF92FF920F931F93CF93DF93AF
:101AC00000D0CDB7DEB7182F7B0100E021E040E069
:101AD00059E06DE370E0CE0101960E94980A898179
:101AE0009A810E949C0401E021E030E0A701612F6F
:101AF0008BE493E00E94A7100E94B60481E090E07E
:101B00000F900F90DF91CF911F910F91FF90EF9069
:101B1000089508959F92AF92BF92CF92DF92EF9275
:101B2000FF920F931F93CF93DF9300D0CDB7DEB713
:101B3000982E6B015A01790100E021E040E059E064
:101B40006DE370E0CE0101960E94980A89819A8126
:101B50000E949C04692D8BE493E00E94650F8E1512
:101B60009F0530F4692D8BE493E00E94650F7C01A2
:101B700087019501A601692D8BE493E00E94B50FC2
:101B80000E94B604C7010F900F90DF91CF911F9173
:101B90000F91FF90EF90DF90CF90BF90AF909F900C
:101BA0000895CF92DF92EF92FF920F931F93CF93FE
:101BB000DF9300D0CDB7DEB7182F7B016A01FB01A0
:101BC0008081811109C08181811106C082818111CA
:101BD00003C083818823F1F0C114D104D9F000E05F
:101BE00021E040E059E06DE370E0CE0101960E94F3
:101BF000980A89819A810E949C04B701812F0E94D2
:101C0000CA0AB601812F0E94030B0E94B60481E02C
:101C100090E002C080E090E00F900F90DF91CF91B4
:101C20001F910F91FF90EF90DF90CF9008950F9349
:101C30001F93CF93DF9300D0CDB7DEB7182F00E00E
:101C400021E040E059E06DE370E0CE0101960E9492
:101C5000980A89819A810E949C0440E250E0612F99
:101C60008BE493E00E94F710812F0E94DD0A84FD2F
:101C700021C0812F0E94DD0A83FF09C068E1812F06
:101C80000E94FE0A0E94B60480E090E01BC00E9401
:101C9000B6040E94B91400E021E040E059E06DE391
:101CA00070E0CE0101960E94980A89819A810E9473
:101CB0009C04DACF60E1812F0E94FE0A0E94B604E4
:101CC00081E090E00F900F90DF91CF911F910F91E5
:101CD00008958EBD00000DB407FEFDCF8EB50895AA
:101CE0002A9808952A9A08951F93CF93DF9300D0DE
:101CF000CDB7DEB7182F6A8399830E94700E80EFEC
:101D00000E94690E9981892F0E94690E812F0E947D
:101D1000690E6A81862F0E94690E0E94720E81E010
:101D20000F900F90DF91CF911F910895CF93DF9384
:101D3000EC016CE271E080E090E00E9433150E94BB
:101D40006901229A80911303882399F09FB7F89430
:101D500080911303813059F48DB3809311032DB317
:101D600080911203809582238DBB9FBF02C0909308
:101D7000110380E58CBD1DBC60E880E090E00E940E
:101D8000740E65E58BE190E00E94740E65E58AE1D2
:101D900090E00E94740E80911303882361F09FB736
:101DA000F8942091130380911103213019F48DBB15
:101DB0009FBF01C08FBF80E090E49983888380E05B
:101DC00090E69987888780E098E49B838A8380E007
:101DD00098E69B878A8780E090E59D838C8380E0EE
:101DE00090E79D878C8780E098E59F838E8380E0D5
:101DF00098E79F878E87DF91CF910895CF92DF92EA
:101E0000EF92FF920F931F93CF93DF93EC017A0130
:101E10008B016C01C40ED51ECC15DD05A1F00E940E
:101E2000700E80EF0E94690E8D2F0E94690E8C2F1C
:101E30000E94690E2196F80181918F010E94690E1E
:101E40000E94720EE9CFC701DF91CF911F910F91D0
:101E5000FF90EF90DF90CF9008951F93CF93DF9383
:101E60001F92CDB7DEB7182F99830E94700E8FE0B6
:101E70000E94690E9981892F0E94690E812F0E940C
:101E8000690E80E00E94690E89830E94720E89812A
:101E90000F90DF91CF911F9108951F93CF93DF9300
:101EA000182F60E270E00E94D30AC82FD0E061E2F0
:101EB00070E0812F0E94D30ADC2FCC279E01282BB3
:101EC000C901DF91CF911F910895FF920F931F9346
:101ED000CF93DF93F62EC0E0D0E08F2D0E944D0F00
:101EE0008C01009721F08F2D0E944D0FEC01C0173F
:101EF000D10799F7CE01DF91CF911F910F91FF90FC
:101F000008951F93CF93DF93182F66E270E00E942D
:101F1000D30AC82FD0E067E270E0812F0E94D30A75
:101F2000DC2FCC279E01282BC901DF91CF911F9177
:101F30000895FF920F931F93CF93DF93F62EC0E087
:101F4000D0E08F2D0E94810F8C01009721F08F2D02
:101F50000E94810FEC01C017D10799F7CE01DF91E4
:101F6000CF911F910F91FF9008956F927F929F9252
:101F7000AF92BF92CF92DF92EF92FF920F931F9397
:101F8000CF93DF931F92CDB7DEB7D82E962E3A01AE
:101F9000590164E270E0892D99830E94D30AE82EEA
:101FA000F12C65E270E0892D0E94D30AFE2CEE240C
:101FB000E82AE60CF71C970137706D2C9981792E71
:101FC000690C711C690C711CD301ED91FC91E20F3D
:101FD000F31FC901800F911F81309840A0F0C12CE0
:101FE00048E0D42EC21AD30AA601B501CF010E943F
:101FF000FE0EA8014C195D09B5016C0D7D1DF301A4
:102000008081918103C0A801B501CF010E94FE0E1D
:10201000E00EF11E4F2D64E270E0892D0E94E10A6E
:102020004E2D65E270E0892D0F90DF91CF911F91C9
:102030000F91FF90EF90DF90CF90BF90AF909F9067
:102040007F906F900C94E10A0F931F9389019A017E
:1020500040E050E00E94B50F1F910F910895CF927C
:10206000DF92EF92FF920F931F93CF93DF93EC01D8
:102070007A018B016C01C40ED51ECC15DD05A9F0CB
:102080000E94700E8FE00E94690E8D2F0E94690ED3
:102090008C2F0E94690E219680E00E94690EF80143
:1020A00081938F010E94720EE8CFC701DF91CF911B
:1020B0001F910F91FF90EF90DF90CF900895AF9216
:1020C000BF92CF92DF92EF92FF920F931F93CF9325
:1020D000DF9300D0CDB7DEB75A8349835901E98138
:1020E000FA81F7707C01E60EF11CE60EF11CD701B7
:1020F00018968D919C9119978E0F9F1F98012E0F06
:102100003F1F2130384098F0C12C68E0D62ECE1AFF
:10211000DF0AA601B5010E942F10A8014C195D0924
:10212000B5016C0D7D1DF7018085918502C0A80168
:10213000B5010F900F90DF91CF911F910F91FF90FC
:10214000EF90DF90CF90BF90AF900C942F108F92B4
:102150009F92AF92BF92CF92DF92EF92FF920F9336
:102160001F93CF93DF936C01962E5A017901802E35
:1021700068E270E0892D0E94D30AC82FD0E069E29E
:1021800070E0892D0E94D30ADC2FCC27C82B870151
:102190009501AE01692DC6010E945F1081101AC021
:1021A000CE0DDF1D4D2F68E270E0892D0E94E10AFF
:1021B0004C2F69E270E0892DDF91CF911F910F9133
:1021C000FF90EF90DF90CF90BF90AF909F908F9057
:1021D0000C94E10ADF91CF911F910F91FF90EF9046
:1021E000DF90CF90BF90AF909F908F900895CF9346
:1021F000C62F61E070E08C2F0E94E10A61E070E080
:102200008C2F0E94D30A8111F9CFCF9108952CB55C
:102210002F7D2CBD2CB5237F2CBD2CB52C7F2CBD48
:102220002DB521602DBDFC0181810E94151685E030
:1022300090E00C946D15FC018081918189130C94C0
:102240001516089560E00C94071161E00C940711D5
:10225000EF92FF921F93CF93DF931F92CDB7DEB71C
:102260007C0169830E9422116981862F8F710E94EF
:10227000690E8FEF0E94690E182FC7010E94251169
:10228000812F0F90DF91CF911F91FF90EF900895D4
:10229000CF92DF92EF92FF920F931F93CF93DF9332
:1022A00000D01F92CDB7DEB78C01F22E4A835B833C
:1022B00069830E9422116981862F8F7180620E943A
:1022C000690EE82E4A81C42E5B81D52EF40EFC14D3
:1022D00031F0F60181916F010E94690EF8CFC801BB
:1022E0000E9425118E2D0F900F900F90DF91CF91AE
:1022F0001F910F91FF90EF90DF90CF900895EF9294
:10230000FF921F93CF93DF9300D0CDB7DEB77C0150
:102310004A8369830E9422116981862F8F718062AE
:102320000E94690E182F4A81842F0E94690EC701EE
:102330000E942511812F0F900F90DF91CF911F9157
:10234000FF90EF900895AF92BF92DF92EF92FF92CD
:102350000F931F93CF93DF9300D0CDB7DEB78C01DF
:10236000FC01E580F42EE41608F4FE2CF8018681C9
:10237000811102C0EF1801C0E12CC80169837A8382
:102380000E94221181E60E94690ED82E6981A62E34
:102390007A81B72EF60EFA1439F08FEF0E94690E8B
:1023A000F50181935F01F7CFEE2029F08FEF0E94B6
:1023B000690EEA94F9CFC8010E9425118D2D0F9066
:1023C0000F90DF91CF911F910F91FF90EF90DF90D1
:1023D000BF90AF900895EF92FF921F93CF93DF933A
:1023E0001F92CDB7DEB77C0169830E9422116981FB
:1023F000862F0E94690E182FC7010E942511812F78
:102400000F90DF91CF911F91FF90EF90089562EEB2
:102410000C94EB1161EE0C94EB116FEF0C94EB113B
:10242000FC0160834183148280E28583168285E00B
:10243000848717820895462F6E3708F04DE765E0D0
:102440000C947F11CF93DF93EC0160E00E94281180
:1024500081FD0EC0482F426060E0CE010E947F11D6
:1024600065E070E080E090E0DF91CF910C9433154F
:10247000DF91CF9108950F931F93CF93DF938C013A
:10248000EB0167E10E94281180FD0BC0209759F0F5
:10249000C8010E940D1290E09595879587708883FA
:1024A00002C080E001C081E0DF91CF911F910F91C8
:1024B000089560E070E00C943B12CF93DF93EC0141
:1024C0000E94A31140E767E0CE01DF91CF910C9409
:1024D0007F11FF920F931F93CF93DF93EC01F62EA2
:1024E0008A01611107C04C8550E0B80107960E942F
:1024F000611C07C086E0861708F437C081E06813C6
:1025000007C0EF2DF0E0E259FF4F64912C8506C023
:10251000E62FF0E0E259FF4F649121E0A801CE01DF
:102520000E9448110F2D10E0F801E859FF4F649107
:102530004D81CE010E947F1162E0CE010E942811E0
:10254000F801EC58FF4F049121E030E001C0220F68
:102550000A95EAF7822B482F62E0CE01DF91CF91F6
:102560001F910F91FF900C947F11DF91CF911F91DC
:102570000F91FF9008951F93CF93DF93EC01162FD7
:1025800062E00E942811E12FF0E0EC58FF4FE49147
:1025900041E050E001C0440FEA95EAF74095482336
:1025A00062E0CE01DF91CF911F910C947F11CF9308
:1025B000DF93EC010E94221260E0CE010E942811FC
:1025C000482F416060E0CE010E947F1140E767E044
:1025D000CE010E947F1161E0CE010E941B118F810C
:1025E000882349F02C85AE01495F5F4F6AE0CE0138
:1025F0000E94481104C060E0CE010E94BB126DE150
:10260000CE010E94281181FF05C0CE01DF91CF913C
:102610000C940A12DF91CF910895CF93DF93EC01D0
:102620000E94221180E50E94690E83E70E94690ED4
:10263000CE01DF91CF910C942511EF92FF920F9371
:102640001F93CF93DF931F92CDB7DEB77C018B0131
:1026500066E00E942811582F577D0230110531F491
:1026600050620BE910E020E030E00DC001301105B0
:1026700029F005E510E020E030E005C0586001E4F5
:1026800010E020E030E0F701058716872787308BC0
:10269000452F66E0C70159830E947F1166E0C7019C
:1026A0000E94281191E05981851390E0892F0F90A5
:1026B000DF91CF911F910F91FF90EF9008951F939D
:1026C000CF93DF93EC0188819981891719F061E03C
:1026D0000E94DC1589819881981719F061E00E94A9
:1026E000DC150E94690160E0CE010E941B1161E0CF
:1026F000CE010E94071165E070E080E090E00E944A
:1027000033154CE060E0CE010E947F114FE564E09C
:10271000CE010E947F1162E070E0CE010E941D1385
:10272000882311F081E08C8366E0CE010E9428119D
:10273000182F60E070E0CE010E941D13CE010E94B0
:102740000D1340E06DE1CE010E947F1140E06CE18D
:10275000CE010E947F1140E767E0CE010E947F1109
:102760006CE4CE010E941B12CE010E940712CE0122
:102770000E940A12CE010E94221260E0CE010E9445
:102780002811482F4E7F60E0CE010E947F1111502A
:1027900081E01E3F08F080E0DF91CF911F91089506
:1027A0008F929F92AF92BF92CF92DF92EF92FF9261
:1027B0006A017B010E9404154B015C01C60ED71E05
:1027C000E81EF91E0E940415681579058A059B0507
:1027D00028F0C616D706E806F906A0F7FF90EF9096
:1027E000DF90CF90BF90AF909F908F90089521E0A1
:1027F0000C94D01381E008950895CF92DF92EF9268
:10280000FF926A017B0160ED77E080E090E00E943A
:10281000331526E0B701A6018AEA93E0FF90EF9016
:10282000DF90CF900C942E17FC01EE5BFF4F1082CF
:10283000118212821382FC01128213821482158289
:10284000411551056105710511F00C94F7130895B8
:102850001F93CF93DF93EC01162F69E572E08AEAAC
:1028600093E00E94ED184AE050E0612F8AEA93E07D
:102870000E94B81960E672E08AEA93E00E94ED18BF
:1028800042E350E060E070E0CE01DF91CF911F9114
:102890000C94F71310926103109262031092630379
:1028A00010926403109265031092660310926703FE
:1028B000109268031092690310926A0310926B03DE
:1028C00010926C0310926D0310926E0310926F03BE
:1028D0001092700308951F93CF93DF93EC01162F8E
:1028E0008E89882329F18AEA93E00E944B16811190
:1028F00002C085E61EC08AEA93E00E944B16882338
:10290000C1F38AEA93E00E946416883689F048F49D
:10291000883569F0833679F7612FCE010E9428143B
:1029200007C0813729F0863731F786E702C01E8A53
:1029300083E6DF91CF911F9108951F93CF93DF938B
:10294000EC01142F611105C01E8BDF91CF911F91F7
:10295000089581E08E8B60E0CE010E946B14833677
:1029600099F341E050E060E070E0CE010E94F7137F
:10297000F2CF08951F920F920FB60F9211242F934A
:102980003F938F939F93AF93BF938091A2039091B6
:10299000A303A091A403B091A5033091A10323E068
:1029A000230F2D3720F40196A11DB11D05C026E887
:1029B000230F0296A11DB11D2093A1038093A203B2
:1029C0009093A303A093A403B093A5038091A603BF
:1029D0009091A703A091A803B091A9030196A11D0E
:1029E000B11D8093A6039093A703A093A803B0936F
:1029F000A903BF91AF919F918F913F912F910F901C
:102A00000FBE0F901F9018952FB7F8946091A203F6
:102A10007091A3038091A4039091A5032FBF089503
:102A20003FB7F8948091A6039091A703A091A803C3
:102A3000B091A90326B5A89B05C02F3F19F00196B8
:102A4000A11DB11D3FBF6627782F892F9A2F620FD6
:102A5000711D811D911D42E0660F771F881F991F10
:102A60004A95D1F708958F929F92AF92BF92CF92DD
:102A7000DF92EF92FF926B017C010E9410154B01D7
:102A80005C01C114D104E104F104F1F00E94B91415
:102A90000E941015681979098A099B09683E7340DC
:102AA0008105910570F321E0C21AD108E108F1080F
:102AB00088EE880E83E0981EA11CB11CC114D104BD
:102AC000E104F10429F7DDCFFF90EF90DF90CF9084
:102AD000BF90AF909F908F9008958230910538F00D
:102AE000880F991F880F991F05970197F1F708958F
:102AF000789484B5826084BD84B5816084BD85B5D9
:102B0000826085BD85B5816085BDEEE6F0E080819F
:102B100081608083E1E8F0E01082808182608083C0
:102B2000808181608083E0E8F0E080818160808343
:102B3000E1EBF0E0808184608083E0EBF0E0808175
:102B400081608083EAE7F0E0808184608083808117
:102B500082608083808181608083808180688083BF
:102B60001092C1000895833081F028F4813099F0EB
:102B70008230A1F008958730A9F08830B9F0843010
:102B8000D1F4809180008F7D03C0809180008F7789
:102B900080938000089584B58F7702C084B58F7DBF
:102BA00084BD08958091B0008F7703C08091B000FC
:102BB0008F7D8093B0000895CF93DF9390E0FC0168
:102BC000E257FF4F2491FC01EE55FF4F849188237B
:102BD00049F190E0880F991FFC01E054FF4FA59147
:102BE000B4918A549F4FFC01C591D4919FB7611154
:102BF00008C0F8948C91209582238C93888182233D
:102C00000AC0623051F4F8948C91322F30958323AE
:102C10008C938881822B888304C0F8948C91822BBA
:102C20008C939FBFDF91CF9108950F931F93CF9304
:102C3000DF931F92CDB7DEB7282F30E0F901E658B9
:102C4000FF4F8491F901E257FF4F1491F901EE55BE
:102C5000FF4F04910023C9F0882321F069830E946B
:102C6000B3156981E02FF0E0EE0FFF1FEA54FF4F2C
:102C7000A591B4919FB7F8948C91611103C0109500
:102C8000812301C0812B8C939FBF0F90DF91CF9147
:102C90001F910F910895FC01818D228D90E0805C41
:102CA0009F4F821B91098F7399270895FC01918D85
:102CB000828D981731F0828DE80FF11D858D90E09F
:102CC00008958FEF9FEF0895FC01918D828D9817E5
:102CD00061F0828DDF01A80FB11D5D968C91928D00
:102CE0009F5F9F73928F90E008958FEF9FEF0895FD
:102CF00088EE97E1892B49F080E090E0892B29F05C
:102D00000E94E81781110C9400000895FC01848D45
:102D1000DF01A80FB11DA35ABF4F2C91848D90E005
:102D200001968F739927848FA689B7892C93A089E0
:102D3000B1898C9180648C93938D848D981306C097
:102D40000288F389E02D80818F7D80830895CF9361
:102D5000DF93EC01888D8823C9F0EA89FB898081A3
:102D600085FD05C0A889B9898C9186FD0FC00FB675
:102D700007FCF5CF808185FFF2CFA889B9898C91B6
:102D800085FFEDCFCE010E948616E7CFDF91CF9170
:102D90000895CF92DF92FF920F931F93CF93DF930B
:102DA0001F92CDB7DEB76C0181E0D60158968C93A7
:102DB00058975B969C915B975C968C915C97981367
:102DC00007C05096ED91FC915197808185FD2EC0F2
:102DD000F601038D10E00F5F1F4F0F731127F02EC8
:102DE000F601848DF81211C00FB607FCF9CFD60199
:102DF0005096ED91FC915197808185FFF1CFC601EE
:102E000069830E9486166981EBCF838DE80FF11DDF
:102E1000E35AFF4F6083D6015B960C935B97529603
:102E2000ED91FC915397808180620CC0D60156963B
:102E3000ED91FC91579760835096ED91FC915197DD
:102E400080818064808381E090E00F90DF91CF915A
:102E50001F910F91FF90DF90CF900895BF92CF9276
:102E6000DF92EF92FF92CF93DF93EC016A017B0137
:102E7000B22EE889F98982E08083411581EE5807F6
:102E800061057105A1F060E079E08DE390E0A701B4
:102E900096010E94481A215031094109510956955D
:102EA000479537952795211580E1380798F0E889EF
:102EB000F989108260E874E88EE190E0A70196013C
:102EC0000E94481A215031094109510956954795E8
:102ED00037952795EC85FD853083EE85FF8520832A
:102EE000188EEC89FD89B082EA89FB898081806136
:102EF0008083EA89FB89808188608083EA89FB89F5
:102F0000808180688083EA89FB8980818F7D8083CE
:102F1000DF91CF91FF90EF90DF90CF90BF90089519
:102F20001F920F920FB60F9211242F938F939F939E
:102F3000EF93FF93E091BA03F091BB038081E0919E
:102F4000C003F091C10382FD12C090818091C30340
:102F50008F5F8F732091C403821751F0E091C303F8
:102F6000F0E0E655FC4F958F8093C30301C080814C
:102F7000FF91EF919F918F912F910F900FBE0F9026
:102F80001F9018951F920F920FB60F9211242F9336
:102F90003F934F935F936F937F938F939F93AF93E1
:102FA000BF93EF93FF938AEA93E00E948616FF9106
:102FB000EF91BF91AF919F918F917F916F915F91B1
:102FC0004F913F912F910F900FBE0F901F9018952A
:102FD0008AEA93E00E944B1621E0892B09F420E055
:102FE000822F08951092AD031092AC0388EE93E007
:102FF000A0E0B0E08093AE039093AF03A093B00342
:10300000B093B10385EB92E09093AB038093AA0356
:1030100085EC90E09093B7038093B60384EC90E046
:103020009093B9038093B80380EC90E09093BB0336
:103030008093BA0381EC90E09093BD038093BC032E
:1030400082EC90E09093BF038093BE0386EC90E007
:103050009093C1038093C0031092C3031092C403E2
:103060001092C5031092C6030895AF92BF92CF92FB
:10307000DF92EF92FF920F931F93CF93DF936C0138
:103080007B01C0E0D0E000E010E0F601EC0FFD1F96
:103090004AE050E06281C7010E94B8195C016EE20B
:1030A000C7010E94EF188A0D9B1D080F191F21965A
:1030B000C330D10551F74AE050E0F6016581C70100
:1030C0000E94B819800F911FDF91CF911F910F912E
:1030D000FF90EF90DF90CF90BF90AF90089525ECD8
:1030E00032E0FC0131832083128213821482158224
:1030F00008950F93FC0185EC92E0918380836283B5
:103100004383248305830F910895FB0140815181FE
:1031100062817381FC0142835383648375830895C4
:1031200085EC92E090934804809347041092490400
:1031300010924A0410924B0410924C040895089582
:103140000E9478150E949F180E949A00C8E7D6E155
:103150000E940A012097E1F30E947816F9CFCF92DE
:10316000DF92EF92FF920F931F93CF93DF937C0137
:103170006A01EB0100E010E00C151D0571F069918A
:10318000D701ED91FC910190F081E02DC7010995E7
:10319000892B19F00F5F1F4FEFCFC801DF91CF913F
:1031A0001F910F91FF90EF90DF90CF9008956115E0
:1031B000710581F0DB010D900020E9F7AD01415070
:1031C0005109461B570BDC01ED91FC910280F38104
:1031D000E02D099480E090E008950C94D718DC016C
:1031E000ED91FC910190F081E02D099466E672E08A
:1031F0000C94D7188F929F92AF92BF92DF92EF926A
:10320000FF920F931F93CF93DF93CDB7DEB7A197B4
:103210000FB6F894DEBF0FBECDBF7C01F42FD52EC4
:10322000CB0119A2223008F42AE08E010F5D1F4F56
:10323000822E912CA12CB12C6F2F7D2DA5019401F4
:103240000E94481AF22FD32ECA01015011096A3088
:1032500014F4E0E301C0E7E3E60FD801EC93232B7D
:10326000242B252B49F7B801C7010E94D718A19636
:103270000FB6F894DEBF0FBECDBFDF91CF911F9187
:103280000F91FF90EF90DF90BF90AF909F908F9045
:103290000895CF92DF92EF92FF920F931F93CF93F7
:1032A000DF93EC016A017B012115310579F4E88196
:1032B000F9810190F081E02D642FDF91CF911F9172
:1032C0000F91FF90EF90DF90CF9009942A30310555
:1032D000E9F477FF1AC06DE20E94EF188C014427D1
:1032E0005527BA014C195D096E097F092AE0CE0104
:1032F0000E94FA18800F911FDF91CF911F910F91BB
:10330000FF90EF90DF90CF9008952AE0B701A601DB
:10331000CE01DF91CF911F910F91FF90EF90DF9041
:10332000CF900C94FA180F931F93CF93DF93EC0177
:103330009A01AB01662757FD6095762F0E944919C7
:103340008C01CE010E94F618800F911FDF91CF9162
:103350001F910F9108952115310541F4DC01ED9184
:10336000FC910190F081E02D642F09940C94FA18DF
:103370009A01462F50E060E070E00C94AB1970E0C9
:103380009B01382BC9010895FC01808191810C9427
:10339000081BCF93DF93EC0188819981009711F08E
:1033A0000E94081B198218821D821C821B821A82AD
:1033B000DF91CF9108950F931F93CF93DF93EC018B
:1033C0008B016F5F7F4F888199810E94971B0097C7
:1033D00031F0998388831B830A8381E001C080E0F8
:1033E000DF91CF911F910F910895CF93DF93EC015F
:1033F00088819981892B29F08A819B81861797077B
:1034000060F4CE010E94DB19882341F08C819D81FC
:10341000892B19F4E881F981108281E0DF91CF9145
:103420000895EF92FF920F931F93CF93DF93EC01D8
:103430007B018A01BA010E94F519811104C0CE01F5
:103440000E94C91907C01D830C83B7018881998127
:103450000E946A1CCE01DF91CF911F910F91FF90C6
:10346000EF900895FC01118210821382128215825E
:1034700014826115710559F0FB0101900020E9F7F4
:10348000AF0141505109461B570B0C94111A089576
:10349000A1E21A2EAA1BBB1BFD010DC0AA1FBB1F58
:1034A000EE1FFF1FA217B307E407F50720F0A21BCA
:1034B000B30BE40BF50B661F771F881F991F1A9437
:1034C00069F760957095809590959B01AC01BD0161
:1034D000CF010895EE0FFF1F0590F491E02D0994A0
:1034E000CF93DF938230910510F482E090E0E09179
:1034F0004F04F091500420E030E0A0E0B0E03097BD
:1035000039F14081518148175907B8F048175907D8
:1035100071F482819381109729F013969C938E9376
:1035200012972CC09093500480934F0427C021150C
:10353000310531F04217530718F0A901DB0101C032
:10354000EF019A01BD01DF010280F381E02DD7CFA9
:1035500021153105F9F0281B390B2430310580F491
:103560008A819B816115710521F0FB019383828320
:1035700004C09093500480934F04FE01329644C0DF
:10358000FE01E20FF31F8193919322503109398399
:1035900028833AC020914D0430914E04232B41F4EE
:1035A000209102013091030130934E0420934D0489
:1035B00020910001309101012115310541F42DB711
:1035C0003EB74091040150910501241B350BE09159
:1035D0004D04F0914E04E217F307A0F42E1B3F0BAD
:1035E0002817390778F0AC014E5F5F4F2417350775
:1035F00048F04E0F5F1F50934E0440934D0481934B
:10360000919302C0E0E0F0E0CF01DF91CF91089507
:10361000CF93DF93009709F487C0FC0132971382A0
:103620001282C0914F04D0915004209781F42081E0
:103630003181280F391F80914D0490914E048217DB
:10364000930779F5F0934E04E0934D046DC0DE01CD
:1036500020E030E0AE17BF0750F412964D915C9118
:1036600013979D014115510509F1DA01F3CFB38399
:10367000A28340815181840F951F8A179B0771F4A3
:103680008D919C911197840F951F02969183808351
:1036900012968D919C911397938382832115310506
:1036A00029F4F0935004E0934F043EC0D9011396DF
:1036B000FC93EE9312974D915D91A40FB51FEA17FD
:1036C000FB0779F480819181840F951F0296D901BF
:1036D00011969C938E938281938113969C938E93E3
:1036E0001297E0E0F0E08A819B81009719F0FE01DB
:1036F000EC01F9CFCE01029628813981820F931F08
:1037000020914D0430914E042817390769F4309701
:1037100029F41092500410924F0402C013821282B6
:10372000D0934E04C0934D04DF91CF910895A0E053
:10373000B0E0EDE9FBE10C94751CEC01CB012097A6
:1037400019F40E94701AB8C0FE01E60FF71F9E011F
:1037500022503109E217F30708F4ACC0D9010D91EA
:103760001C91119706171707B8F00530110508F4DA
:103770009FC0A801445051094617570708F498C044
:1037800002501109061B170B019311936D937C9343
:10379000CF010E94081B8CC05B01A01AB10A4E0128
:1037A000800E911EA0914F04B0915004612C712C99
:1037B00060E070E0109709F449C0A815B905C9F593
:1037C000ED90FC901197670142E0C40ED11CCA1421
:1037D000DB0478F147018A189B08640142E0C40EBB
:1037E000D11C1296BC9012971396AC91B5E0CB16F3
:1037F000D10440F0B282A38391828082D9018D935B
:103800009C9309C00E5F1F4F0E0D1F1DF901118300
:103810000083EB2DFA2F6115710531F0DB01139652
:10382000FC93EE93129744C0F0935004E0934F043E
:103830003FC06D917C9111976616770608F43B01A5
:10384000BD0112960D90BC91A02DB4CF60914D0496
:1038500070914E0468157905E9F468167906D0F47C
:1038600040910001509101014115510541F44DB7BE
:103870005EB76091040170910501461B570BE41778
:10388000F507C0F4F0934E04E0934D04F9019183E1
:1038900080830EC00E94701A7C01009759F0A80125
:1038A000BE010E94611CCE010E94081BC70104C01A
:1038B000CE0102C080E090E0CDB7DEB7EEE00C9420
:1038C000911CFB01DC0102C001900D92415050405F
:1038D000D8F70895FB01DC0101900D920020E1F77B
:1038E00008952F923F924F925F926F927F928F92A4
:1038F0009F92AF92BF92CF92DF92EF92FF920F937F
:103900001F93CF93DF93CDB7DEB7CA1BDB0B0FB688
:10391000F894DEBF0FBECDBF09942A883988488845
:103920005F846E847D848C849B84AA84B984C884DB
:10393000DF80EE80FD800C811B81AA81B981CE0FD2
:10394000D11D0FB6F894DEBF0FBECDBFED010895B7
:1039500010E0CEEDD0E004C0FE010E946C1A229669
:0A396000C03ED107C9F7F894FFCF6D
:10396A000000510480000100000073656E736F72DD
:10397A004B6F74656C6E6100D4ADBEEFFE7D00C006
:10398A0001005E000000564D4450565F317C315FA5
:10399A00564D4450560D0A003139322E3136382EE2
:1039AA00312E3234002F4150492F57726974653FC6
:1039BA0073656E736F724964656E74696669636173
:1039CA00746F723D2349442676616C75653D2356B2
:1039DA00414C0023494400507269706F6A756A69E4
:1039EA00206B2000507269706F6A656E6F21004704
:1039FA004554200020485454502F312E3100486F2E
:103A0A0073743A2000436F6E74656E742D54797026
:103A1A00653A206170706C69636174696F6E2F78A2
:103A2A002D7777772D666F726D2D75726C656E6363
:103A3A006F64656400436F6E6E656374696F6E3A96
:103A4A0020636C6F73650053706F6A656E692073CB
:103A5A0065206E65706F7665646C6F2E00000000DD
:103A6A00005E068706A106AA06C806EB066707EFE8
:103A7A0006C406C407FE0774064F0652067C06549F
:103A8A00060000000057088F085308A308E9086DCC
:103A9A000802096E0883082F0A8B082F09CC0838F8
:103AAA00083F084F088509564D4450455F003A3291
:103ABA003A005F564D44504500564D4450435F000E
:103ACA005F564D4450430D0A004572726F723A2098
:103ADA00417474656D707420746F2073657420610D
:103AEA0020726561642D6F6E6C79207661726961EE
:103AFA00626C65206F7220646174612074797065EC
:103B0A00206E6F7420737570706F727465640D0A1D
:103B1A000000000000C916AF184B1664165616A707
:103B2A00160000000035186E616E00696E66006F3F
:043B3A0076660000AB
:00000001FF
